:020000040800F2
:1000000068070020710A000835020008370200085E
:100010003B0200083F020008430200080000000005
:10002000000000000000000000000000470200087F
:1000300049020008000000004B0200084D020008C1
:100040008B0A00088B0A00088B0A00088B0A00083C
:100050008B0A00088B0A00088B0A00088B0A00082C
:100060008B0A00088B0A00088B0A00088B0A00081C
:100070008B0A00088B0A00088B0A00088B0A00080C
:100080008B0A00088B0A00088B0A00088B0A0008FC
:100090008B0A00088B0A00088B0A00088B0A0008EC
:1000A0008B0A0008150800088B0A00088B0A000854
:1000B0008B0A00088B0A00088B0A00088B0A0008CC
:1000C0008B0A00088B0A00088B0A00088B0A0008BC
:1000D0008B0A0008E50900088B0A00088B0A000853
:1000E0008B0A00088B0A00088B0A00088B0A00089C
:1000F0008B0A00088B0A00088B0A00088B0A00088C
:100100008B0A00088B0A00088B0A00088B0A00087B
:100110008B0A00088B0A00088B0A00088B0A00086B
:100120008B0A00088B0A00088B0A00088B0A00085B
:1001300000F002F800F03FF80AA090E8000C8244BA
:100140008344AAF10107DA4501D100F034F8AFF297
:10015000090EBAE80F0013F0010F18BFFB1A43F0A5
:1001600001031847AC2F0000CC2F0000103A24BF29
:1001700078C878C1FAD8520724BF30C830C144BF0C
:1001800004680C607047000000230024002500264E
:10019000103A28BF78C1FBD8520728BF30C148BFEA
:1001A0000B607047642902F0BB86002070471FB5C2
:1001B0001FBD10B510BD02F07BFF1146FFF7F7FF22
:1001C00000F025F802F099FF03B4FFF7F2FF03BC3B
:1001D00000F0AEFB08B500F041FB4FF4A06000F06A
:1001E00067FC4FF4E13000F0B1FB00F097F900F04C
:1001F000BBF941F61F4141F2873000F0DBFA0020E5
:10020000042308220721009000F01AFA08BDFFF726
:10021000E1FF0CE000F03AF90548006808B9012058
:1002200000E0002002490860C82000F054FBF1E71C
:1002300094812142704700BFFEE700BFFEE700BF88
:10024000FEE700BFFEE77047704770477047000049
:100250000CB50020019000906C48006840F480309C
:100260006A49086000BF6948006800F400300090E7
:100270000198401C0190009818B90198B0F5A06F42
:10028000F1D16248006800F4003010B10120009004
:1002900001E0002000900098012843D15C480068EC
:1002A00040F010005A4908600846006820F003003A
:1002B00008600846006840F0020008605348406843
:1002C000524948600846406848600846406840F423
:1002D000806048600846406820F47C10486008460A
:1002E000406840F4E81048600846006840F08070BC
:1002F000086000BF4548006800F000700028F9D091
:100300004248406820F00300404948600846406881
:1003100040F00200486000BF3C48406800F00C001C
:100320000828F9D10CBD10B5FFF792FF10BD10B52C
:100330003648006840F001003449086008464068CB
:10034000344908403149486008460068324908404D
:100350002E4908600846006820F48020086008469E
:10036000406820F4FE0048604FF41F008860FFF7EB
:10037000DAFF4FF000602949086010BD10B5002178
:1003800000200022214B5B6803F00C0121B10429FD
:1003900006D0082928D107E0214B224C236027E012
:1003A0001F4B204C236023E0184B5B6803F4701054
:1003B000164B5B6803F48032022303EB904022B9B2
:1003C000194B4343174C23600DE0104B5B6803F45B
:1003D000003323B1144B4343124C236003E0104B12
:1003E0004343104C236003E00D4B0E4C236000BFD1
:1003F00000BF064B5B68C3F303130C4CE15C094B75
:100400001B68CB40074C236010BD00000010024069
:10041000002002400000FFF8FFFFF6FE08ED00E0BC
:1004200000127A000000002000093D0004000020B6
:1004300010B5044621480068401C20490860084661
:1004400001681FA002F02CFD10BD1CB50024002087
:1004500000900190FF208DF8050000208DF8060027
:1004600002208DF807001748006870B1082168461F
:1004700000F04CF9044624B1214613A002F010FD0F
:1004800003E0214617A002F00BFD1CBD10B50020B3
:1004900000F084F80446012C06D1002009490860C8
:1004A00016A002F0FDFC07E0022C05D10120054951
:1004B000086016A002F0F4FC10BD0000140000203B
:1004C0002564200018000020202073746F702046DF
:1004D00061696C6564202074656D703D2564202021
:1004E00000000000202073746F70204F4B20207498
:1004F000656D703D25642020000000002020657897
:100500006974204F4B2020202000000020207374AD
:10051000617274204F4B20200000000008B50121BB
:10052000482000F04FFE2020ADF8000010208DF88C
:10053000030003208DF802006946094800F086FB9D
:100540002021074800F02FFC2020ADF8000069466C
:10055000044800F07BFB2021024800F024FC08BD89
:10056000000C01400018014008B50121442000F0B2
:1005700029FE1820ADF8000048208DF803006946D8
:100580002C4800F063FB0120ADF8000028208DF816
:1005900003006946284800F059FB08BD10B5044621
:1005A00014B10120254908702448007858B310215F
:1005B000204800F0DEFB50B108211E4800F0D9FBB6
:1005C00028B101211C4800F0D4FB01281BD10A20CE
:1005D00000F081F90020194908701021154800F039
:1005E000C8FB08B9012010BD0821124800F0C1FB6A
:1005F00008B90220F7E701210F4800F0BAFB0128F3
:1006000015D10320EFE710210A4800F0B2FB0128C2
:100610000DD10821074800F0ACFB012807D10121CA
:10062000054800F0A6FB10B901200449087000201D
:10063000D9E7000000180140000801401C0000201C
:100640002DE9F04188B004460D4616461F46DDF8F8
:1006500038800121042000F0B5FD0121480600F09A
:10066000BEFD4FF48050ADF81C0003208DF81E0035
:1006700018208DF81F0007A94C4800F0E7FA4FF446
:100680000060ADF81C0048208DF81F0007A94748FE
:1006900000F0DCFA00208DF816008DF817008DF8B8
:1006A000180001208DF8190000208DF81A008DF82F
:1006B0001B008DF812808DF813408DF814608DF8B2
:1006C0001550ADF8107004A9394800F0F8FD00206D
:1006D0008DF80A008DF80B0001208DF80C004FF604
:1006E000FF70ADF80000ADF80200ADF80400ADF801
:1006F00006000020ADF8080001208DF80D006846C6
:1007000000F067FE002008B0BDE8F081F0B585B0CC
:1007100007460D46002401200090002001908DF82E
:1007200008008DF809008DF80A5000BF05E0395D1A
:100730000DF10B000155601C84B2AC42F7DB694639
:100740001B4800F035FF0646002401E0601C84B21F
:100750003146174800F0C4FF18B940F6FF708442D4
:10076000F4DB40F6FF70844202DB012005B0F0BDEF
:100770000020FBE730B585B0054600210C4801F0AC
:100780008FF810B9002005B030BD6A460021084836
:1007900001F003F8002404E00DF10B00005D285582
:1007A000641C082CF8D39DF80A00ECE7000801400F
:1007B000006400407FB505460C460121C80200F0E8
:1007C00001FDADF80850ADF804400020ADF80A0076
:1007D000ADF8060004208DF80C0001A91D4801F0B9
:1007E00025FD012211461B4802F097F819208DF8CB
:1007F000000000208DF8010003208DF80200012088
:100800008DF80300684600F058F90121114802F004
:1008100069F87FBD1CB500200090019001210D48B2
:1008200002F029FBA8B101210A4802F035FB0A4871
:10083000006808B9012000E0002007490860684608
:10084000FFF798FF18B16846FFF7F2FD01E0FFF7E8
:10085000FCFD1CBD002C01409401234210B56FF03B
:10086000040000F074F92E4800682E49B0FBF1F046
:100870002D4908700846007800EB4001C1EBC0101C
:100880004FF6FF7101EAC0002849088010BD0146FB
:10089000254A12784A434FF0E0235A6100229A61B8
:1008A0001A46126942F001021A6100BF4FF0E022BD
:1008B000106900F001021AB100F48032002AF5D06C
:1008C0004FF0E022126922F001024FF0E0231A619A
:1008D00000229A6170470146144A12884A434FF039
:1008E000E0235A6100229A611A46126942F001021D
:1008F0001A6100BF4FF0E022106900F001021AB146
:1009000000F48032002AF5D04FF0E022126922F084
:1009100001024FF0E0231A6100229A617047000043
:100920000000002000127A001E000020200000209D
:1009300000BF704700BF4A4A128802F04002002AF6
:10094000F9D0C2B2464B1B1D1A80704710B586B055
:100950000446012144F2040000F034FC4FF400701E
:10096000ADF8140003208DF8160018208DF817003C
:1009700005A93C4800F06AF94FF48060ADF8140016
:1009800004208DF8170005A9364800F05FF92520EE
:100990008DF8000003208DF801008DF80200012081
:1009A0008DF80300684600F088F801940020ADF847
:1009B0000800ADF80A00ADF80C00ADF810000C20EE
:1009C000ADF80E0001A9264801F09BF9012240F282
:1009D0002551234801F02DFA0121214801F01DFA8B
:1009E00006B010BD10B540F225511D4801F006FBC0
:1009F00010B31B4801F082FAC4B21B48008800F40F
:100A00000040C8B91848008800F4804060B10A2C42
:100A100003D000201449088020E01348008840F4E7
:100A200000401149088019E00D2C06D10E480088BD
:100A300040F480400C49088010E00B480088C0F367
:100A40000D000A490C5408480088401C06490880DB
:100A500008460088C72801DD0020088010BD00007E
:100A6000003801400008014028000020400000201C
:100A70000948804709480047FEE7FEE7FEE7FEE732
:100A8000FEE7FEE7FEE7FEE7FEE7FEE7044805496E
:100A9000054A064B704700002F030008310100088B
:100AA0006801002068070020680300206803002018
:100AB00031490143314A1160704770B5002100236C
:100AC0000F22C47804B32D4C246804F4E064C4F508
:100AD000E064210AC1F10403CA40447804FA03F136
:100AE0008478144021430901254C0678A1550478E7
:100AF00004F01F050124AC4005786D11AD0005F12F
:100B0000E025C5F8004109E0047804F01F05012440
:100B1000AC401C4D0678761145F8264070BD1A4A47
:100B20000A400243154B1B1F1A60704739B1134A24
:100B3000121D12680243114B1B1D1A6006E00F4A7A
:100B4000121D126882430D4B1B1D1A60704704284A
:100B500008D14FF0E021096941F004014FF0E02293
:100B6000116107E04FF0E021096921F004014FF025
:100B7000E0221161704700000000FA050CED00E072
:100B800000E400E080E100E080FFFF1F10B50446B4
:100B9000CC48844208D10121042000F02DFB002123
:100BA000042000F029FB46E0C748844208D1012117
:100BB000082000F021FB0021082000F01DFB3AE096
:100BC000C248844208D10121102000F015FB002109
:100BD000102000F011FB2EE0BD48844208D1012115
:100BE000202000F009FB0021202000F005FB22E07E
:100BF000B848844208D10121402000F0FDFA0021CC
:100C0000402000F0F9FA16E0B348844208D10121EF
:100C1000802000F0F1FA0021802000F0EDFA0AE0D7
:100C2000AE48844207D10121801500F0E5FA002189
:100C3000A01500F0E1FA10BD10B50121084600F042
:100C4000DBFA0021012000F0D7FA10BD2DE9F041B8
:100C5000024600250026002000230024002791F8EA
:100C600003C00CF00F0591F803C00CF0100CBCF1A0
:100C7000000F03D091F802C04CEA050591F800C0BE
:100C8000BCF1000F31D0146800202BE04FF0010CB4
:100C90000CFA00F3B1F800C00CEA03069E4220D122
:100CA00083004FF00F0C0CFA03F7BC4305FA03FC6A
:100CB0004CEA040491F803C0BCF1280F06D14FF0B0
:100CC000010C0CFA00FCC2F814C00AE091F803C051
:100CD000BCF1480F05D14FF0010C0CFA00FCC2F832
:100CE00010C0401C0828D1D31460B1F800C0BCF17A
:100CF000FF0F34DD546800202EE000F1080C4FF0A7
:100D0000010808FA0CF3B1F800C00CEA03069E4291
:100D100021D183004FF00F0C0CFA03F7BC4305FA06
:100D200003FC4CEA040491F803C0BCF1280F05D180
:100D300000F1080C08FA0CF8C2F8148091F803C00E
:100D4000BCF1480F07D100F1080C4FF0010808FA78
:100D50000CF8C2F81080401C0828CED35460BDE8BF
:100D6000F0814FF6FF710180022181700421C17072
:100D700070470246002093680B400BB1012000E051
:100D8000002070470146886880B270470246002004
:100D9000D3680B400BB1012000E0002070470146F2
:100DA000C86880B2704701617047416170470AB1FD
:100DB000016100E041617047C16070474FF48032CB
:100DC0000A43826181618261826982697047024659
:100DD0000020434B18684FF68073184040EA021019
:100DE00008433F4B186070473E49C8617047F0B5F3
:100DF0000A46002300240021002500F00046B6F139
:100E0000004F02D1364EF16901E0354E7168C0F3F2
:100E1000034583B200F44016B6F5401F08D121F017
:100E200070612F4E766826F070662D4F7E6012E05E
:100E300000F48016B6F5801F06D1032606FA05F4E5
:100E4000A14341F0706106E0460D360103FA06F653
:100E5000B14341F0706122B1460D360103FA06F646
:100E6000314300F00046B6F1004F02D11C4EF16153
:100E700001E01B4E7160F0BD30B500228B071C0FE6
:100E80000F2303FA04F2164B08338C1053F8243066
:100E90009343134C08348D1044F8253023468C10AE
:100EA00053F824308C07240F00FA04F423430C4C2D
:100EB00008348D1044F8253030BD0A49DC31086013
:100EC0007047000000080140000C01400010014084
:100ED0000014014000180140001C014000200140A6
:100EE0000000014000002042DF48006840F001009F
:100EF000DD49086008464068DC490840DA49486036
:100F000008460068DA490840D74908600846006882
:100F100020F4802008600846406820F4FE00486005
:100F20004FF41F0088607047CF49096821F4803171
:100F3000CD4A11601146096821F480211160B0F595
:100F4000803F03D0B0F5802F0ED106E0C649096876
:100F500041F48031C44A116007E0C349096841F493
:100F6000A021C14A116000E000BF00BF704710B56A
:100F700001460022002300204A11012A02D1BA4C66
:100F8000236806E0022A02D1B74C236A01E0B64C7E
:100F9000636A01F01F02012494401C400CB101203F
:100FA00000E0002010BD38B500200090002400258E
:100FB00000BF3120FFF7DBFF05460098401C009082
:100FC0000098B0F5A06F01D0002DF2D03120FFF7CE
:100FD000CEFF08B1012400E00024204638BD0146C0
:100FE0000020A14A106820F0F80040EAC10010601B
:100FF0007047A04908607047024600209A4B586825
:1010000020F47C1042EA01031843974B5860704764
:1010100098490866704701460020934A506820F0BE
:1010200003000843506070478F48406800F00C0090
:101030007047014600208C4A506820F0F0000843B9
:101040005060704701460020874A506820F4E060F5
:1010500008435060704701460020834A506820F4DE
:10106000605040EAC1005060704729B17E4A527A10
:1010700002437D4B5A7204E07B4A527A82437A4B98
:101080005A7270477B49D83108607047014600208A
:10109000754A506820F44040084350607047002172
:1010A000714A20321170704A82F82010012802D053
:1010B00004280AD104E001216B4A2032117005E0B6
:1010C0000521694A2032117000E000BF00BF70475F
:1010D0006949086070476449096A0143624A1162BC
:1010E0007047654944390860704730B500210022D7
:1010F000002400235C4D6D6805F00C0121B104292A
:1011000005D0082923D105E05C4D056022E05B4D48
:1011100005601FE0544D6D6805F47012524D6D6806
:1011200005F48034022505EB92421CB9544D554319
:1011300005600BE04C4D6D6805F400351DB1504D58
:101140005543056002E04D4D5543056002E04B4DAF
:10115000056000BF00BF444D6D6805F0F00109094E
:10116000484D6B5C0568DD4045603F4D6D6805F49A
:10117000E061090A434D6B5C4568DD4085603A4D8E
:101180006D6805F46051C90A3E4D6B5C4568DD40F1
:10119000C560354D6D6805F44041890B3A4D6B5C77
:1011A000C568B5FBF3F5056130BD29B12E4A52691A
:1011B00002432D4B5A6104E02B4A526982432A4B69
:1011C0005A61704729B1284A92690243264B9A61B5
:1011D00004E0254A92698243234B9A61704729B102
:1011E000214AD2690243204BDA6104E01E4AD269E7
:1011F00082431D4BDA61704729B11B4AD268024312
:10120000194BDA6004E0184AD2688243164BDA6060
:10121000704729B1144A12690243134B1A6104E062
:10122000114A12698243104B1A61704712494039C2
:10123000086070470F49C86470470B49C871704710
:101240000948406A40F0807007494862704701468B
:101250000020054A92680A400AB1012000E00020FF
:101260007047014988727047001002400000FFF883
:10127000FFFFF6FE000042428004424200127A0064
:1012800000093D002A0000203A00002010B5044665
:10129000FE48844209D101214806FFF7BAFF002128
:1012A0004FF00070FFF7B5FF08E001218806FFF757
:1012B000B0FF00214FF08060FFF7ABFF10BD30B5ED
:1012C000024600200023146824F00204146014680D
:1012D00044F00104146000E05B1C546804F0010455
:1012E0001CB94FF6FF74A342F6D1546804F0010410
:1012F0000CB900206CE08C79012C04D1146844F006
:101300008004146003E0146824F080041460CC7935
:10131000012C04D1146844F04004146003E0146804
:1013200024F0400414600C7A012C04D1146844F0B9
:101330002004146003E0146824F0200414604C7A44
:10134000012C04D1146844F01004146003E0146804
:1013500024F0100414608C7A012C04D1146844F039
:101360000804146003E0146824F008041460CC7AC4
:10137000012C04D1146844F00404146003E01468E0
:1013800024F0040414608C78A407CD7844EA056442
:101390000D7944EA05444D7944EA05540D886D1EE3
:1013A0002C43D461146824F001041460002300E08D
:1013B0005B1C546804F001041CB14FF6FF74A34297
:1013C000F6D1546804F001040CB1002000E00120C3
:1013D00030BD10B50021837A012202FA03F1AC4A34
:1013E000126842F00102AA4B1A60A94A1C32126824
:1013F0008A43A74B1C331A60027BCAB9A44A0C3239
:1014000012688A43A24B0C331A604288C38842EAAE
:1014100003439F4A4032847A42F8343002888388FA
:1014200042EA03439A4A4032847A02EBC402536090
:10143000027B012A19D1964A0C3212680A43944B56
:101440000C331A604288038842EA0343904A4032D0
:10145000847A42F83430C288838842EA03438C4A53
:101460004032847A02EBC4025360C27A3AB9884AA5
:10147000121D12688A43864B1B1D1A6006E0844ABF
:10148000121D12680A43824B1B1D1A60028932B971
:101490007F4A143212688A437D4B14331A600289E2
:1014A000012A06D17A4A143212680A43784B14335F
:1014B0001A60427B012A06D1754A1C3212680A431F
:1014C000734B1C331A60724A126822F00102704B8F
:1014D0001A6010BD00218171C17101724172817267
:1014E000C1728170C170032101710221417101211A
:1014F000018070476649096841F00101644A116042
:101500001146096843F60E729143614A1160114613
:10151000096841EA002111601146096821F00101C2
:101520001160704721B1026842F48032026003E02A
:10153000026822F4803202607047E1B1026842F032
:10154000800202604FF4C272125842F480734FF46A
:10155000C27213504FF4CA72125842F480734FF49F
:10156000CA7213504FF4D272125842F480734FF47F
:10157000D27213501BE0026822F0800202604FF426
:10158000C272125822F480734FF4C27213504FF497
:10159000CA72125822F480734FF4CA7213504FF477
:1015A000D272125822F480734FF4D27213507047E3
:1015B00010B502460020936803F08063B3F1806F9A
:1015C00000D110E0936803F00063B3F1006F01D124
:1015D000012008E0936803F08053B3F1805F01D1EC
:1015E000022000E00420042879D002F5C07303EB48
:1015F00000131B6803F0010402F5C07303EB001332
:101600001C600B7A7BB94B7A0C8843EA445302F591
:10161000C07404EB00142468234302F5C07404EB87
:101620000014236010E00B7A4C6843EAC4034C7A40
:10163000234302F5C07404EB00142468234302F52D
:10164000C07404EB001423608B7A03F00F038B72D9
:1016500002F5C07303EB00135B6823F00F0402F57F
:10166000C07303EB00135C6002F5C07303EB00135F
:101670005B688C7A234302F5C07404EB001463604A
:101680008B7B1C064B7B44EA034403E00064004070
:10169000006600400B7B44EA0323CC7A234302F527
:1016A000C07404EB0014A3608B7C1C064B7C44EAE2
:1016B00003440B7C44EA0323CC7B234302F5C07430
:1016C00004EB0014E36002F5C07303EB00131B6826
:1016D00043F0010402F5C07303EB00131C6010BD5E
:1016E00010B50246002321B1012907D002290FD1EC
:1016F00009E09068F94C00EA04030BE09068F84CAC
:1017000000EA040306E09068F64C00EA040301E0F6
:10171000002300BF00BFF44C181BA34216D007DC07
:1017200083B16FF08060184470B1022818D111E0C5
:10173000B0F5007F10D0ED4C204448B1B0F5003F2B
:101740000ED10BE002230DE000230BE0002309E0A3
:10175000002307E0012305E0012303E0012301E06A
:10176000002300BF00BFD8B210BD21B1012907D0AE
:1017700002290FD109E0826842F0800282600AE00B
:10178000826842F40042826005E0826842F400020E
:10179000826000E000BF00BF704710B500F5D8734D
:1017A00003EB01131B6803F004031372137A53B99C
:1017B00000F5D87303EB01131B6840F2FF7404EAD1
:1017C0005353136009E000F5D87303EB01131B6852
:1017D0006FF0604404EAD303536000F5D87303EB61
:1017E00001131B6803F00203537200F5D87303EB77
:1017F00001135B6803F00F03937200F5D87303EBDA
:1018000001135B681B0AD37400F5D87303EB011353
:101810009B68D37200F5D87303EB01139B681C0A15
:10182000147300F5D87303EB01139B681C0C5473FD
:1018300000F5D87303EB01139B681B0E937300F53F
:10184000D87303EB0113DB68D37300F5D87303EB94
:101850000113DB681C0A147400F5D87303EB011341
:10186000DB681C0C547400F5D87303EB0113DB68C0
:101870001B0E937421B9C36843F02003C36003E0D7
:10188000036943F02003036110BD21B9C26842F02F
:101890002002C26003E0026942F020020261704748
:1018A0000246002019B9D36803F0030006E00129BD
:1018B00003D1136903F0030000E00020704710B566
:1018C00002460B4600204FF6FF71BBB9146824F0A6
:1018D000020444F00104146000E0491E546804F05E
:1018E0000304012C01D00029F7D1546804F003044B
:1018F000012C01D0002032E0012030E0012B13D177
:10190000146824F00304146000E0491E546804F0D5
:1019100003040CB10029F8D1546804F003040CB19D
:1019200000201CE001201AE0022B17D1146824F0DB
:10193000010444F00204146000E0491E546804F0FD
:101940000304022C01D00029F7D1546804F00304E9
:10195000022C01D0002002E0012000E0002010BD98
:10196000014600200A6822F0010242F002020A60E9
:101970004A6802F00302022A00D1012070470146A2
:101980004FF6FF7200200B6823F002030B6000E0AB
:10199000521E4B6803F00203022B01D1002AF7D13B
:1019A0004B6803F00203022B00D001207047014670
:1019B00000208A6902F070007047014600208A69A1
:1019C000100E7047014600208A69C2F30740704735
:1019D0001AB143690B43436102E043698B4343619E
:1019E000704710B50246002001F4700343B19369BB
:1019F000C1F3130423400BB101202DE000202BE0A4
:101A000001F0807343B15368C1F3130423400BB159
:101A1000012021E000201FE001F0006343B1936842
:101A2000C1F3130423400BB1012015E0002013E0A3
:101A300001F0007343B1D368C1F3130423400BB129
:101A4000012009E0002007E01369C1F313042340DB
:101A50000BB1012000E0002010BD0022244B994270
:101A600002D10023836111E0C1F3130201F000737E
:101A70000BB1C2600AE001F080630BB1026105E0C6
:101A800001F000630BB1826000E0426070470246E3
:101A9000002002EA01030BB1012000E000207047A2
:101AA00070B504460D46002660692840002872D0B3
:101AB000B5F5807F69D01DDC082D42D006DC012DF4
:101AC0002DD0022D31D0042D7FD134E0102D3ED009
:101AD000202D42D0402D78D145E0000003000004C5
:101AE0000003000800000310000100080001FFF7D8
:101AF0007000F030B5F5004F61D009DCB5F5007F1E
:101B00004AD0B5F5806F4DD0B5F5006F5DD150E08E
:101B1000B5F5803F2DD0B5F5003F56D12FE0A06838
:101B20005549FFF7B4FF064651E0E0680321FFF78F
:101B3000AEFF06464BE0E0680821FFF7A8FF064627
:101B400045E0E0681021FFF7A2FF06463FE020696C
:101B50000321FFF79CFF064639E020690821FFF7C3
:101B600096FF064633E020691021FFF790FF0646F6
:101B70002DE060680821FFF78AFF064627E06068CD
:101B80001021FFF784FF064621E0A0690121FFF73D
:101B90007EFF06461BE01BE0A0690221FFF777FFEE
:101BA000064614E0A0690421FFF771FF06460EE027
:101BB0000BE0A0697021FFF76AFF064607E0606846
:101BC0000421FFF764FF064601E0002600BF00E0A5
:101BD0000026304670BDB1F5007F3AD00FDC2029D9
:101BE00028D006DC01291CD004291DD0082940D1A9
:101BF0001DE0402921D0B1F5807F3AD126E0B1F532
:101C0000004F31D006DCB1F5806F25D0B1F5006F03
:101C10002FD124E0B1F5803F12D0B1F5003F28D19B
:101C200011E0154A826025E00822C26022E01022FD
:101C3000C2601FE0082202611CE01022026119E06C
:101C40000822426016E01022426013E00422426043
:101C500010E0042242600DE0042242600AE000220B
:101C600082610422426005E0002282610422426017
:101C700000E000BF00BF70470101010010B504463D
:101C8000FB48844209D101218803FFF7B5FA0021FE
:101C90004FF48040FFF7B0FA32E0F648844209D1B1
:101CA00001214804FFF7B5FA00214FF40030FFF797
:101CB000B0FA25E0F048844209D101218804FFF7F9
:101CC000A8FA00214FF48020FFF7A3FA18E0EB48B0
:101CD000844209D10121C804FFF79BFA00214FF487
:101CE0000020FFF796FA0BE0E548844208D1012175
:101CF0000805FFF78EFA00214FF48010FFF789FAEC
:101D000010BD2DE9F04786B005460E460024A246D8
:101D100000BFA1460027B08900B100BF2F462C8A22
:101D20004CF6FF700440F08804432C82AC894EF6D8
:101D3000F3100440B0883189084371890843044393
:101D4000AC81AC8A4FF6FF400440B0890443AC82BA
:101D500001A8FFF7CAF9C648874202D1DDF810A0F2
:101D600001E0DDF80CA0A88900F4004040B10AEBC6
:101D7000CA0000EB0A1031684900B0FBF1F807E037
:101D80000AEBCA0000EB0A1031688900B0FBF1F8D9
:101D90006420B8FBF0F004012009642101FB1089E4
:101DA000A88900F4004040B1322000EBC900B0FB2C
:101DB000F1F000F00700044308E0322000EB0910C6
:101DC0006421B0FBF1F000F00F0004432C8106B059
:101DD000BDE8F0874FF41651016000218180C18079
:101DE00001810C21418100218181704710B502469B
:101DF0000020108A4FF2FF0318400B884C882343C1
:101E00008C882343CC8823431843108210BD0021C3
:101E1000018041808180C180704721B1828942F474
:101E20000052828104E082894DF6FF731A4082815C
:101E30007047F0B50346002400260025002040F638
:101E40006A17B94200D100BF1846C1F3421401F02D
:101E50001F06012707FA06F5012C01D10C3004E01A
:101E6000022C01D1103000E014301AB107682F4362
:101E7000076002E00768AF430760F0BD1AB1838ACC
:101E80000B43838202E0838A8B4383827047028AFA
:101E90004FF6F0731A400282028A0A4302827047A8
:101EA00082894FF2FF731A40828182890A438281BC
:101EB000704721B1828942F00202828104E0828966
:101EC0004FF6FD731A4082817047028A4FF6DF7326
:101ED0001A400282028A0A430282704721B1028AB2
:101EE00042F48042028204E0028A4BF6FF731A40F9
:101EF00002827047C1F308028280704701468888D9
:101F0000C0F308007047818941F001018181704769
:101F1000028BD2B20283028B42EA01220283704713
:101F2000028B02F47F420283028B0A4302837047D2
:101F300021B1828A42F02002828204E0828A4FF636
:101F4000DF731A408282704721B1828A42F0100208
:101F5000828204E0828A4FF6EF731A4082827047D1
:101F600021B1828A42F00802828204E0828A4FF61E
:101F7000F7731A408282704721B1828942F400428D
:101F8000828103E08289C2F30E028281704721B10F
:101F9000828A42F40062828204E0828A4FF2FF73F6
:101FA0001A4082827047828A4FF6FB731A408282FF
:101FB000828A0A438282704721B1828A42F00202F9
:101FC000828204E0828A4FF6FD731A408282704753
:101FD00002460020B1F5007F00D100BF13880B40FE
:101FE0000BB1012000E00020704701F40072B2F54F
:101FF000007F00D100BFCA430280704770B502461F
:10200000002400230025002040F66A16B14200D1CA
:1020100000BFC1F3421501F01F03012606FA03F3C6
:10202000012D02D19689334006E0022D02D1168A95
:10203000334001E0968A33400C12012606FA04F47C
:102040001688344013B10CB1012000E0002070BDAF
:1020500010B50022002340F66A14A14200D100BF4F
:102060000A1201249440A3B2DC43048010BD000096
:10207000003801400044004000480040004C00404F
:102080000050004010B50446FE48844208D10121AA
:10209000C014FFF7B1F80021E014FFF7ADF8C4E079
:1020A000B4F1804F08D101210846FFF7B2F80021B2
:1020B0000120FFF7AEF8B8E0F348844208D10121CF
:1020C0000220FFF7A6F800210220FFF7A2F8ACE0FB
:1020D000EE48844208D101210420FFF79AF800213C
:1020E0000420FFF796F8A0E0E948844208D10121D6
:1020F0000820FFF78EF800210820FFF78AF894E007
:10210000E448844208D101211020FFF782F8002121
:102110001020FFF77EF888E0DF48844208D10121D3
:102120002020FFF776F800212020FFF772F87CE0EE
:10213000DA48844208D101214014FFF75DF80021FC
:102140006014FFF759F870E0D548844209D10121A5
:10215000C804FFF751F800214FF40020FFF74CF8B6
:1021600063E0D048844209D101210805FFF744F813
:1021700000214FF48010FFF73FF856E0CA48844230
:1021800009D101214805FFF737F800214FF400106D
:10219000FFF732F849E0C548844208D101214020C8
:1021A000FFF737F800214020FFF733F83DE0C04843
:1021B000844208D101218020FFF72BF800218020E4
:1021C000FFF727F831E0BB48844208D10121801590
:1021D000FFF71FF80021A015FFF71BF825E0B64810
:1021E000844209D101210804FFF706F800214FF4C9
:1021F0008030FFF701F818E0B048844209D101218E
:102200004804FEF7F9FF00214FF40030FEF7F4FF19
:102210000BE0AB48844208D101218804FEF7ECFFB3
:1022200000214FF48020FEF7E7FF10BD0022028856
:10223000944B98420ED0994B98420BD0B0F1804FFE
:1022400008D0914B984205D0904B984202D0904BC9
:10225000984204D14FF68F731A404B881A438D4B26
:10226000984207D08C4B984204D04FF6FF431A4057
:10227000CB881A4302808B8883850B880385814B2A
:1022800098420BD0854B984208D08B4B984205D092
:102290008A4B984202D08A4B984201D10B7A03862E
:1022A00001238382704770B5002400220023058C2F
:1022B0004FF6FE7635400584028C8388048B4FF6FA
:1022C0008F752C40B51E2C400D882C43751E2A405E
:1022D0000D892A434D882A436A4DA8420BD06F4D81
:1022E000A84208D0744DA84205D0744DA84202D02F
:1022F000734DA84213D14FF6F7752A404D892A43F2
:102300004FF6FB752A408D882A434FF6FF652B4018
:102310004FF6FF552B408D892B43CD892B4383806E
:102320000483CD888586028470BD70B500240022A8
:102330000023058C4FF6EF7635400584028C8388A8
:10234000048B48F6FF752C404FF6FF452C400D8856
:102350004FF6FF7606EA05252C434FF6DF752A4037
:102360000D8906EA05152A434D8806EA05152A4314
:10237000444DA84202D0494DA8421DD14FF67F7569
:102380002A404D894FF6FF7606EA05152A434FF697
:10239000BF752A408D8806EA05152A434FF6FF359A
:1023A0002B404FF2FF752B408D8906EA85052B43A4
:1023B000CD8906EA85052B4383800483CD88058774
:1023C000028470BD70B5002400220023058C4FF6F6
:1023D000FF6635400584028C8388848B4FF68F75A9
:1023E0002C404FF6FC752C400D882C434FF6FF55C2
:1023F0002A400D894FF6FF7606EA05252A434D88C7
:1024000006EA05252A431F4DA84202D0234DA842C3
:102410001DD14FF2FF752A404D894FF6FF7606EA2F
:1024200005252A434FF6FF352A408D8806EA052503
:102430002A434EF6FF752B404DF6FF752B408D89D4
:1024400006EA05152B43CD8906EA05152B43838043
:102450008483CD888587028470BD70B500220023F7
:102460000024058C4EF6FF7635400584038C848865
:10247000828B48F6FF752A404FF6FF452A400D88AB
:1024800020E00000002C0140000400400008004053
:10249000000C0040001000400014004000340140D7
:1024A000004C014000500140005401400018004021
:1024B000001C00400020004000400140004401405A
:1024C000004801404FF6FF7606EA05252A434DF6FF
:1024D000FF752B400D8906EA05352B434D8806EA2A
:1024E00005352B43FA4DA84202D0FA4DA84208D137
:1024F0004BF6FF752C408D894FF6FF7606EA851561
:102500002C4384808283CD88A0F84050038470BD22
:10251000828B4FF2FF331A408283828B4FF6FF7318
:1025200003EA01231A4382837047F0B50C4615462F
:10253000002200210026078C4EF6FF7C07EA0C07DC
:102540000784828B018C4FF6FF7707EA043640F64A
:10255000FF473A404FF6FF7707EA05273A434FF621
:10256000FF7707EA03373A43D94FB8420ED0D94F25
:10257000B8420BD0B0F1804F08D0D74FB84205D049
:10258000D64FB84202D0D64FB84206D14DF6FF77AB
:10259000394046F48057394305E047F6FF57394044
:1025A00044F48057394382830184F0BD828B4FF617
:1025B000F3731A408283828B0A4382837047F0B59B
:1025C0000C461546002200210026078C4FF6FF6CB2
:1025D00007EA0C070784828B018C4FF6FF7707EA26
:1025E00004264FF60C773A404FF6FF7707EA0317B9
:1025F0002F433A43B64FB8420ED0B64FB8420BD035
:10260000B0F1804F08D0B44FB84205D0B34FB842B4
:1026100002D0B34FB84206D14FF6FF57394046F4C7
:102620008077394305E04FF2FF57394044F4807713
:10263000394382830184F0BD028B4FF2FF331A408D
:102640000283028B4FF6FF7303EA01231A430283CE
:102650007047F0B50C461546002200210026078C75
:102660004FF6EF7C07EA0C070784028B018C4FF6CC
:10267000FF7707EA041640F6FF473A404FF6FF7728
:1026800007EA03373A434FF6FF7707EA05273A434D
:102690008F4FB8420ED08F4FB8420BD0B0F1804F61
:1026A00008D08D4FB84205D08C4FB84202D08C4F25
:1026B000B84206D14FF6DF77394046F0100739436C
:1026C00005E04FF65F77394044F010073943028345
:1026D0000184F0BD028B4FF6F3731A400283028B24
:1026E0000A4302837047F0B50C46154600220021CC
:1026F000068C4FF6FE773E400684028B018C4FF627
:102700000C7632407E1C06EA03162E433243704E8E
:10271000B0420ED06F4EB0420BD0B0F1804F08D017
:102720006D4EB04205D06D4EB04202D06C4EB042FC
:1027300006D14FF6FD76314044F00106314305E005
:102740004FF6F576314044F00106314302830184AF
:10275000F0BD70B505460C465D4885420ED05D481B
:1027600085420BD0B5F1804F08D05B48854205D03B
:102770005A48854202D05A48854200D100E000BF45
:10278000208850B92389A28861882846FFF7ABFFCB
:10279000E1882846FFF79EFF25E0208804280AD11B
:1027A0002389A28861882846FFF753FFE1882846DD
:1027B000FFF742FF17E0208808280AD12389A28862
:1027C00061882846FFF7FBFEE1882846FFF7EEFE0A
:1027D00009E02389A28861882846FFF7A6FEE188E0
:1027E0002846FFF795FE70BD2DE9F04105460C46E1
:1027F00000260127608808B9022600E00026A0888C
:10280000012801D1022700E001272088A0B92389EF
:10281000A28861882846FFF766FFE1882846FFF70F
:1028200059FF23893A4631462846FFF712FFE188CF
:102830002846FFF701FF13E02389A2886188284614
:10284000FFF707FFE1882846FFF7F6FE23893A469F
:1028500031462846FFF747FFE1882846FFF73AFF51
:10286000BDE8F0810A884B881A438B881A43CB88CD
:102870001A430B891A434B891A438B891A43A0F8D0
:10288000442070474FF6FF71818000210180C18094
:102890004180017270470021018041808180C180A8
:1028A000018141818181C181704700210180418086
:1028B000012181800021C1800181704700210180B8
:1028C00041808180C1800181418181817047000008
:1028D000002C01400034014000040040000800408A
:1028E000000C004021B1028842F00102028004E0A5
:1028F00002884FF6FE731A400280704731B1B0F87B
:10290000442042F40042A0F8442005E0B0F84420FE
:10291000C2F30E02A0F8442070471AB183890B431A
:10292000838102E083898B43838170478182704772
:1029300041EA0203A0F8483070471AB183890B437B
:10294000838102E083898B438381704701894FF63D
:10295000F8721140018170470A46002101894FF643
:102960008F73194011430181704730B504460D46FD
:1029700029462046FFF7F0FF208940F0070020811C
:1029800030BD2DE9F04104460D4616461F46602D28
:1029900006D13B46012231462046FFF75AFE05E0AC
:1029A0003B46012231462046FFF79DFE2946204640
:1029B000FFF7D2FF208940F007002081BDE8F081B9
:1029C00030B50C4600210189C9B24FF6FF7505EA02
:1029D0000325154325432943018130BD2DE9F041ED
:1029E00005460E4617469846002443463A46314669
:1029F0002846FFF7E5FF2C894FF6F870044044F0B5
:102A000007044FF68F70044044F070042C81BDE839
:102A1000F081F0B504460D4616461F463B46324649
:102A200029462046FFF7CCFF208940F480402081D2
:102A3000F0BD0185828270470A46002101884FF669
:102A40008F731940114301807047F0B50C4615464D
:102A50001E460021002200230189028B038C4FF6C1
:102A6000F877394021434FF6FC473A4040F20117CE
:102A70003A434FF6DD773B404FF6FF7707EA0617FC
:102A80002F433B43018102830384F0BD0A460021AA
:102A9000018B4FF68F7319401143018370470A462B
:102AA0000021018B48F6FF7319404FF6FF7303EACC
:102AB00002231943018370470A460021818B4FF698
:102AC0008F7319401143818370470A460021818B1F
:102AD00048F6FF7319404FF6FF7303EA02231943C8
:102AE0008183704721B1028842F08002028004E0B5
:102AF00002884FF67F731A400280704721B18288A6
:102B000042F00402828004E082884FF6FB731A4090
:102B10008280704721B1828842F00802828004E0FE
:102B200082884FF6F7731A408280704721B18288FD
:102B300042F00102828004E082884FF6FE731A4060
:102B4000828070470A460021018B4FF6F7731940C7
:102B50001143018370470A460021018B4FF2FF7336
:102B600019404FF6FF7303EA0223194301837047AC
:102B70000A460021818B4FF6F77319401143818378
:102B800070470A460021818B4FF2FF7319404FF6C0
:102B9000FF7303EA02231943818370470A46002129
:102BA000018B4FF6FB7319401143018370470A46AE
:102BB0000021018B4FF6FF3319404FF6FF7303EAF4
:102BC00002231943018370470A460021818B4FF687
:102BD000FB7319401143818370470A460021818BA2
:102BE0004FF6FF3319404FF6FF7303EA02231943F0
:102BF000818370470A460021018B4FF67F7319408D
:102C00001143018370470A460021018BC1F30E0175
:102C10004FF6FF7303EA02231943018370470A4604
:102C20000021818B4FF67F731940114381837047D8
:102C30000A460021818BC1F30E014FF6FF7303EAB0
:102C400002231943818370470A460021018C4FF605
:102C5000FD7319401143018470470A460021018C1D
:102C60004FF6F77319401143018470470A4600215B
:102C7000018C4FF6DF7319404FF6FF7303EA02131E
:102C80001943018470470A460021018C4FF67F7377
:102C900019404FF6FF7303EA02131943018470478A
:102CA0000A460021018C4FF6FF5319404FF6FF737F
:102CB00003EA02231943018470470A460021018C6C
:102CC0004FF2FF7319404FF6FF7303EA02231943D3
:102CD000018470470A460021018C4DF6FF731940AC
:102CE0004FF6FF7303EA023319430184704730B58E
:102CF000002301248C40A3B2048C9C430484048CE4
:102D000002FA01F5ADB22C43048430BD30B5002386
:102D100004248C40A3B2048C9C430484048C02FAE7
:102D200001F5ADB22C43048430BD70B503460020DC
:102D300000241846183001258D40ACB21D8CA543E7
:102D40001D8409B1082909D100EB6100056825F04F
:102D5000700505600568154305600EE00D1FC5F39D
:102D60004E052844056825F4E045056005684FF6E2
:102D7000FF7606EA02263543056070BD21B1028860
:102D800042F00202028004E002884FF6FD731A400E
:102D90000280704721B1028842F00402028004E000
:102DA00002884FF6FB731A400280704721B1828877
:102DB00042F08002828004E082884FF67F731A40DE
:102DC0008280704702884FF6F7731A4002800288AB
:102DD0000A430280704782884FF68F731A408280C0
:102DE00082880A438280704702894FF6F8731A403E
:102DF000028102890A430281704702894FF67F737C
:102E00001A40028102890A43028170478184704717
:102E10008185704781867047018770478187704739
:102E2000A0F84010704702884FF6FF431A40028016
:102E300002880A43028070470146888E7047014627
:102E4000088F70470146888F70470146B1F84000EF
:102E500070470146888C70470146088D70470246CE
:102E60000020138A0B400BB1012000E000207047C6
:102E7000CA430282704730B5024600200023002476
:102E8000158A05EA0103958905EA010413B10CB11D
:102E9000012000E0002030BDCA4302827047704725
:102EA0000FB4044910B503AA029800F0D3F810BC7F
:102EB0005DF814FB240000202DE9F0410E46044685
:102EC000002020622046E168884730B3252805D0DD
:102ED000D4E901219047206A401CF2E7E1682046CE
:102EE00000278847050018D0A5F14100192802D80D
:102EF00020354FF400673246294620462760FDF70B
:102F000051F940B1012804D0F61D26F00706083615
:102F1000D8E7361DD6E72846DAE7206ABDE8F08113
:102F20002DE9F0410646002410687529314616A5A2
:102F300010D0AFF30080002802DA404213A507E06A
:102F400031688A0701D512A502E0490704D511A509
:102F5000012401E0AFF3008000210A2206F12407DA
:102F600009E0B0FBF2FCB0FBF2F302FB1C003030D6
:102F700078541846491C0028F3D123462A46304687
:102F8000BDE8F04100F00CB8000000002D0000008A
:102F90002B0000002000000070477047704770470A
:102FA0002DE9F0470D4699469246044600F1240863
:102FB0000168880604D5E06921F01001216000E075
:102FC0000120A84201DD471B00E00027A1697A1912
:102FD00002EB0900081AA0612078C00602D420463E
:102FE000AFF30080002608E0D4E901211AF80600BA
:102FF0009047206A401C761C20624E45F4DB207806
:10300000C0060AD52046AFF3008006E0D4E90121CE
:1030100030209047206A401C2062381EA7F101072B
:10302000F4DC07E0D4E9012118F805009047206A94
:10303000401C2062281EA5F10105F3DC2046AFF3F9
:1030400000802078000602D50220BDE8F08701202C
:10305000FBE70000074B70B50D467B4400F011F80C
:103060000446284600F020F810B14FF0FF3070BD44
:10307000204670BDD7D8FFFF01694A1C026108785D
:10308000704700B58FB0CDE90131002105910549A8
:103090007944CDE9031011466846FFF70DFF0FB0E4
:1030A00000BD0000E5FFFFFF007B00F080007047DF
:1030B000754600F029F8AE4605006946534620F0F3
:1030C0000700854618B020B5FDF7E0FCBDE82040BC
:1030D0004FF000064FF000074FF000084FF0000BD4
:1030E00021F00701AC46ACE8C009ACE8C009ACE887
:1030F000C009ACE8C0098D4670470446AFF30080B4
:103100002046FDF761F800000048704708010020E4
:103110003031000800000020400000006C01000871
:1031200070310008400000202807000088010008D6
:1031300000A24A0400000000000000000102030495
:10314000060708090000000001000000010000005F
:10315000000000000000000000000000000001026C
:10316000030401020304060708090204060800001C
:0400000508000131BD
:00000001FF
